{
  "contractName": "Voting",
  "abi": [
    {
      "anonymous": false,
      "inputs": [
        {
          "indexed": true,
          "internalType": "address",
          "name": "previousOwner",
          "type": "address"
        },
        {
          "indexed": true,
          "internalType": "address",
          "name": "newOwner",
          "type": "address"
        }
      ],
      "name": "OwnershipTransferred",
      "type": "event"
    },
    {
      "anonymous": false,
      "inputs": [
        {
          "indexed": false,
          "internalType": "uint256",
          "name": "proposalId",
          "type": "uint256"
        }
      ],
      "name": "ProposalRegistered",
      "type": "event"
    },
    {
      "anonymous": false,
      "inputs": [
        {
          "indexed": false,
          "internalType": "address",
          "name": "voter",
          "type": "address"
        },
        {
          "indexed": false,
          "internalType": "uint256",
          "name": "proposalId",
          "type": "uint256"
        }
      ],
      "name": "Voted",
      "type": "event"
    },
    {
      "anonymous": false,
      "inputs": [
        {
          "indexed": false,
          "internalType": "address",
          "name": "voterAddress",
          "type": "address"
        }
      ],
      "name": "VoterRegistered",
      "type": "event"
    },
    {
      "anonymous": false,
      "inputs": [
        {
          "indexed": false,
          "internalType": "enum Voting.WorkflowStatus",
          "name": "previousStatus",
          "type": "uint8"
        },
        {
          "indexed": false,
          "internalType": "enum Voting.WorkflowStatus",
          "name": "newStatus",
          "type": "uint8"
        }
      ],
      "name": "WorkflowStatusChange",
      "type": "event"
    },
    {
      "inputs": [],
      "name": "owner",
      "outputs": [
        {
          "internalType": "address",
          "name": "",
          "type": "address"
        }
      ],
      "stateMutability": "view",
      "type": "function"
    },
    {
      "inputs": [
        {
          "internalType": "uint256",
          "name": "",
          "type": "uint256"
        }
      ],
      "name": "proposalsArray",
      "outputs": [
        {
          "internalType": "string",
          "name": "description",
          "type": "string"
        },
        {
          "internalType": "uint256",
          "name": "voteCount",
          "type": "uint256"
        }
      ],
      "stateMutability": "view",
      "type": "function"
    },
    {
      "inputs": [],
      "name": "renounceOwnership",
      "outputs": [],
      "stateMutability": "nonpayable",
      "type": "function"
    },
    {
      "inputs": [
        {
          "internalType": "address",
          "name": "newOwner",
          "type": "address"
        }
      ],
      "name": "transferOwnership",
      "outputs": [],
      "stateMutability": "nonpayable",
      "type": "function"
    },
    {
      "inputs": [],
      "name": "workflowStatus",
      "outputs": [
        {
          "internalType": "enum Voting.WorkflowStatus",
          "name": "",
          "type": "uint8"
        }
      ],
      "stateMutability": "view",
      "type": "function"
    },
    {
      "inputs": [
        {
          "internalType": "address",
          "name": "_addr",
          "type": "address"
        }
      ],
      "name": "getVoter",
      "outputs": [
        {
          "components": [
            {
              "internalType": "bool",
              "name": "isRegistered",
              "type": "bool"
            },
            {
              "internalType": "bool",
              "name": "hasVoted",
              "type": "bool"
            },
            {
              "internalType": "uint256",
              "name": "votedProposalId",
              "type": "uint256"
            }
          ],
          "internalType": "struct Voting.Voter",
          "name": "",
          "type": "tuple"
        }
      ],
      "stateMutability": "view",
      "type": "function"
    },
    {
      "inputs": [
        {
          "internalType": "uint256",
          "name": "_id",
          "type": "uint256"
        }
      ],
      "name": "getOneProposal",
      "outputs": [
        {
          "components": [
            {
              "internalType": "string",
              "name": "description",
              "type": "string"
            },
            {
              "internalType": "uint256",
              "name": "voteCount",
              "type": "uint256"
            }
          ],
          "internalType": "struct Voting.Proposal",
          "name": "",
          "type": "tuple"
        }
      ],
      "stateMutability": "view",
      "type": "function"
    },
    {
      "inputs": [],
      "name": "getWinners",
      "outputs": [
        {
          "components": [
            {
              "internalType": "string",
              "name": "description",
              "type": "string"
            },
            {
              "internalType": "uint256",
              "name": "voteCount",
              "type": "uint256"
            }
          ],
          "internalType": "struct Voting.Proposal[]",
          "name": "",
          "type": "tuple[]"
        }
      ],
      "stateMutability": "view",
      "type": "function"
    },
    {
      "inputs": [],
      "name": "getWinner",
      "outputs": [
        {
          "components": [
            {
              "internalType": "string",
              "name": "description",
              "type": "string"
            },
            {
              "internalType": "uint256",
              "name": "voteCount",
              "type": "uint256"
            }
          ],
          "internalType": "struct Voting.Proposal",
          "name": "",
          "type": "tuple"
        }
      ],
      "stateMutability": "view",
      "type": "function"
    },
    {
      "inputs": [
        {
          "internalType": "address",
          "name": "_addr",
          "type": "address"
        }
      ],
      "name": "addVoter",
      "outputs": [],
      "stateMutability": "nonpayable",
      "type": "function"
    },
    {
      "inputs": [
        {
          "internalType": "string",
          "name": "_desc",
          "type": "string"
        }
      ],
      "name": "addProposal",
      "outputs": [],
      "stateMutability": "nonpayable",
      "type": "function"
    },
    {
      "inputs": [
        {
          "internalType": "uint256",
          "name": "_id",
          "type": "uint256"
        }
      ],
      "name": "setVote",
      "outputs": [],
      "stateMutability": "nonpayable",
      "type": "function"
    },
    {
      "inputs": [],
      "name": "startProposalsRegistering",
      "outputs": [],
      "stateMutability": "nonpayable",
      "type": "function"
    },
    {
      "inputs": [],
      "name": "endProposalsRegistering",
      "outputs": [],
      "stateMutability": "nonpayable",
      "type": "function"
    },
    {
      "inputs": [],
      "name": "startVotingSession",
      "outputs": [],
      "stateMutability": "nonpayable",
      "type": "function"
    },
    {
      "inputs": [],
      "name": "endVotingSession",
      "outputs": [],
      "stateMutability": "nonpayable",
      "type": "function"
    },
    {
      "inputs": [],
      "name": "tallyVotesDraw",
      "outputs": [],
      "stateMutability": "nonpayable",
      "type": "function"
    },
    {
      "inputs": [],
      "name": "tallyVotes",
      "outputs": [],
      "stateMutability": "nonpayable",
      "type": "function"
    }
  ],
  "bytecode": "0x60806040523480156200001157600080fd5b5062000032620000266200003860201b60201c565b6200004060201b60201c565b62000104565b600033905090565b60008060009054906101000a900473ffffffffffffffffffffffffffffffffffffffff169050816000806101000a81548173ffffffffffffffffffffffffffffffffffffffff021916908373ffffffffffffffffffffffffffffffffffffffff1602179055508173ffffffffffffffffffffffffffffffffffffffff168173ffffffffffffffffffffffffffffffffffffffff167f8be0079c531659141344cd1fd0a4f28419497f9722a3daafe3b4186f6b6457e060405160405180910390a35050565b612ea780620001146000396000f3fe608060405234801561001057600080fd5b50600436106101165760003560e01c8063a7bfab16116100a2578063df15c37e11610071578063df15c37e14610249578063ee74c67814610267578063f2fde38b14610271578063f4ab9adf1461028d578063f86c6779146102a957610116565b8063a7bfab16146101fb578063c7038a4e14610205578063c88af42f1461020f578063d4f50f981461021957610116565b8063715018a6116100e9578063715018a6146101675780638da5cb5b146101715780638e7ea5b21461018f578063a1edffa2146101ad578063a2788cce146101cb57610116565b8063230796ae1461011b5780632fdae3c514610137578063378a2178146101535780633beee92e1461015d575b600080fd5b61013560048036038101906101309190611f87565b6102da565b005b610151600480360381019061014c9190611f3e565b6105d7565b005b61015b61081b565b005b6101656109fc565b005b61016f610d60565b005b610179610de8565b60405161018691906123e6565b60405180910390f35b610197610e11565b6040516101a491906126e2565b60405180910390f35b6101b5610f5e565b6040516101c2919061244c565b60405180910390f35b6101e560048036038101906101e09190611f87565b610f71565b6040516101f291906126e2565b60405180910390f35b610203611049565b005b61020d6111a2565b005b6102176112fc565b005b610233600480360381019061022e9190611f11565b611456565b6040516102409190612704565b60405180910390f35b61025161157e565b60405161025e919061242a565b60405180910390f35b61026f6116ee565b005b61028b60048036038101906102869190611f11565b611848565b005b6102a760048036038101906102a29190611f11565b611940565b005b6102c360048036038101906102be9190611f87565b611b5e565b6040516102d19291906124b2565b60405180910390f35b600660003373ffffffffffffffffffffffffffffffffffffffff1673ffffffffffffffffffffffffffffffffffffffff16815260200190815260200160002060000160009054906101000a900460ff16610369576040517f08c379a000000000000000000000000000000000000000000000000000000000815260040161036090612522565b60405180910390fd5b6003600581111561037d5761037c6129b4565b5b600460009054906101000a900460ff16600581111561039f5761039e6129b4565b5b146103df576040517f08c379a00000000000000000000000000000000000000000000000000000000081526004016103d690612542565b60405180910390fd5b60011515600660003373ffffffffffffffffffffffffffffffffffffffff1673ffffffffffffffffffffffffffffffffffffffff16815260200190815260200160002060000160019054906101000a900460ff1615151415610476576040517f08c379a000000000000000000000000000000000000000000000000000000000815260040161046d906126c2565b60405180910390fd5b6005805490508111156104be576040517f08c379a00000000000000000000000000000000000000000000000000000000081526004016104b5906125c2565b60405180910390fd5b80600660003373ffffffffffffffffffffffffffffffffffffffff1673ffffffffffffffffffffffffffffffffffffffff168152602001908152602001600020600101819055506001600660003373ffffffffffffffffffffffffffffffffffffffff1673ffffffffffffffffffffffffffffffffffffffff16815260200190815260200160002060000160016101000a81548160ff0219169083151502179055506005818154811061057457610573612a12565b5b906000526020600020906002020160010160008154809291906105969061293c565b91905055507f4d99b957a2bc29a30ebd96a7be8e68fe50a3c701db28a91436490b7d53870ca433826040516105cc929190612401565b60405180910390a150565b600660003373ffffffffffffffffffffffffffffffffffffffff1673ffffffffffffffffffffffffffffffffffffffff16815260200190815260200160002060000160009054906101000a900460ff16610666576040517f08c379a000000000000000000000000000000000000000000000000000000000815260040161065d90612522565b60405180910390fd5b6001600581111561067a576106796129b4565b5b600460009054906101000a900460ff16600581111561069c5761069b6129b4565b5b146106dc576040517f08c379a00000000000000000000000000000000000000000000000000000000081526004016106d390612562565b60405180910390fd5b6040516020016106eb90612622565b60405160208183030381529060405280519060200120816040516020016107129190612490565b604051602081830303815290604052805190602001201415610769576040517f08c379a0000000000000000000000000000000000000000000000000000000008152600401610760906125a2565b60405180910390fd5b610771611ce6565b818160000181905250600581908060018154018082558091505060019003906000526020600020906002020160009091909190915060008201518160000190805190602001906107c2929190611d00565b506020820151816001015550507f92e393e9b54e2f801d3ea4beb0c5e71a21cc34a5d34b77d0fb8a3aa1650dc18f600160058054905061080291906127f6565b60405161080f919061271f565b60405180910390a15050565b610823611c1a565b73ffffffffffffffffffffffffffffffffffffffff16610841610de8565b73ffffffffffffffffffffffffffffffffffffffff1614610897576040517f08c379a000000000000000000000000000000000000000000000000000000000815260040161088e90612582565b60405180910390fd5b600460058111156108ab576108aa6129b4565b5b600460009054906101000a900460ff1660058111156108cd576108cc6129b4565b5b1461090d576040517f08c379a000000000000000000000000000000000000000000000000000000000815260040161090490612682565b60405180910390fd5b600080600090505b60058054905081101561098b576005828154811061093657610935612a12565b5b9060005260206000209060020201600101546005828154811061095c5761095b612a12565b5b9060005260206000209060020201600101541115610978578091505b80806109839061293c565b915050610915565b50806003819055506005600460006101000a81548160ff021916908360058111156109b9576109b86129b4565b5b02179055507f0a97a4ee45751e2abf3e4fc8946939630b11b371ea8ae39ccdc3056e98f5cc3f600460056040516109f1929190612467565b60405180910390a150565b610a04611c1a565b73ffffffffffffffffffffffffffffffffffffffff16610a22610de8565b73ffffffffffffffffffffffffffffffffffffffff1614610a78576040517f08c379a0000000000000000000000000000000000000000000000000000000008152600401610a6f90612582565b60405180910390fd5b60046005811115610a8c57610a8b6129b4565b5b600460009054906101000a900460ff166005811115610aae57610aad6129b4565b5b14610aee576040517f08c379a0000000000000000000000000000000000000000000000000000000008152600401610ae590612682565b60405180910390fd5b6000610af8611d86565b600080600090505b600580549050811015610c05576005821015610bf2578360058281548110610b2b57610b2a612a12565b5b9060005260206000209060020201600101541415610b6f5780838360058110610b5757610b56612a12565b5b6020020181815250508180610b6b9061293c565b9250505b8360058281548110610b8457610b83612a12565b5b9060005260206000209060020201600101541115610bf157610ba4611d86565b92508083600060058110610bbb57610bba612a12565b5b60200201818152505060058181548110610bd857610bd7612a12565b5b9060005260206000209060020201600101549350600191505b5b8080610bfd9061293c565b915050610b00565b5060005b81811015610cf4576001838260058110610c2657610c25612a12565b5b6020020151908060018154018082558091505060019003906000526020600020016000909190919091505560026005848360058110610c6857610c67612a12565b5b602002015181548110610c7e57610c7d612a12565b5b906000526020600020906002020190806001815401808255809150506001900390600052602060002090600202016000909190919091506000820181600001908054610cc9906128d9565b610cd4929190611da8565b506001820154816001015550508080610cec9061293c565b915050610c09565b506005600460006101000a81548160ff02191690836005811115610d1b57610d1a6129b4565b5b02179055507f0a97a4ee45751e2abf3e4fc8946939630b11b371ea8ae39ccdc3056e98f5cc3f60046005604051610d53929190612467565b60405180910390a1505050565b610d68611c1a565b73ffffffffffffffffffffffffffffffffffffffff16610d86610de8565b73ffffffffffffffffffffffffffffffffffffffff1614610ddc576040517f08c379a0000000000000000000000000000000000000000000000000000000008152600401610dd390612582565b60405180910390fd5b610de66000611c22565b565b60008060009054906101000a900473ffffffffffffffffffffffffffffffffffffffff16905090565b610e19611ce6565b600580811115610e2c57610e2b6129b4565b5b600460009054906101000a900460ff166005811115610e4e57610e4d6129b4565b5b14610e8e576040517f08c379a0000000000000000000000000000000000000000000000000000000008152600401610e8590612602565b60405180910390fd5b600560035481548110610ea457610ea3612a12565b5b9060005260206000209060020201604051806040016040529081600082018054610ecd906128d9565b80601f0160208091040260200160405190810160405280929190818152602001828054610ef9906128d9565b8015610f465780601f10610f1b57610100808354040283529160200191610f46565b820191906000526020600020905b815481529060010190602001808311610f2957829003601f168201915b50505050508152602001600182015481525050905090565b600460009054906101000a900460ff1681565b610f79611ce6565b60058281548110610f8d57610f8c612a12565b5b9060005260206000209060020201604051806040016040529081600082018054610fb6906128d9565b80601f0160208091040260200160405190810160405280929190818152602001828054610fe2906128d9565b801561102f5780601f106110045761010080835404028352916020019161102f565b820191906000526020600020905b81548152906001019060200180831161101257829003601f168201915b505050505081526020016001820154815250509050919050565b611051611c1a565b73ffffffffffffffffffffffffffffffffffffffff1661106f610de8565b73ffffffffffffffffffffffffffffffffffffffff16146110c5576040517f08c379a00000000000000000000000000000000000000000000000000000000081526004016110bc90612582565b60405180910390fd5b600360058111156110d9576110d86129b4565b5b600460009054906101000a900460ff1660058111156110fb576110fa6129b4565b5b1461113b576040517f08c379a000000000000000000000000000000000000000000000000000000000815260040161113290612542565b60405180910390fd5b60048060006101000a81548160ff021916908360058111156111605761115f6129b4565b5b02179055507f0a97a4ee45751e2abf3e4fc8946939630b11b371ea8ae39ccdc3056e98f5cc3f60036004604051611198929190612467565b60405180910390a1565b6111aa611c1a565b73ffffffffffffffffffffffffffffffffffffffff166111c8610de8565b73ffffffffffffffffffffffffffffffffffffffff161461121e576040517f08c379a000000000000000000000000000000000000000000000000000000000815260040161121590612582565b60405180910390fd5b60006005811115611232576112316129b4565b5b600460009054906101000a900460ff166005811115611254576112536129b4565b5b14611294576040517f08c379a000000000000000000000000000000000000000000000000000000000815260040161128b90612642565b60405180910390fd5b6001600460006101000a81548160ff021916908360058111156112ba576112b96129b4565b5b02179055507f0a97a4ee45751e2abf3e4fc8946939630b11b371ea8ae39ccdc3056e98f5cc3f600060016040516112f2929190612467565b60405180910390a1565b611304611c1a565b73ffffffffffffffffffffffffffffffffffffffff16611322610de8565b73ffffffffffffffffffffffffffffffffffffffff1614611378576040517f08c379a000000000000000000000000000000000000000000000000000000000815260040161136f90612582565b60405180910390fd5b6001600581111561138c5761138b6129b4565b5b600460009054906101000a900460ff1660058111156113ae576113ad6129b4565b5b146113ee576040517f08c379a00000000000000000000000000000000000000000000000000000000081526004016113e590612662565b60405180910390fd5b6002600460006101000a81548160ff02191690836005811115611414576114136129b4565b5b02179055507f0a97a4ee45751e2abf3e4fc8946939630b11b371ea8ae39ccdc3056e98f5cc3f6001600260405161144c929190612467565b60405180910390a1565b61145e611e35565b600660003373ffffffffffffffffffffffffffffffffffffffff1673ffffffffffffffffffffffffffffffffffffffff16815260200190815260200160002060000160009054906101000a900460ff166114ed576040517f08c379a00000000000000000000000000000000000000000000000000000000081526004016114e490612522565b60405180910390fd5b600660008373ffffffffffffffffffffffffffffffffffffffff1673ffffffffffffffffffffffffffffffffffffffff1681526020019081526020016000206040518060600160405290816000820160009054906101000a900460ff161515151581526020016000820160019054906101000a900460ff161515151581526020016001820154815250509050919050565b6060600580811115611593576115926129b4565b5b600460009054906101000a900460ff1660058111156115b5576115b46129b4565b5b146115f5576040517f08c379a00000000000000000000000000000000000000000000000000000000081526004016115ec90612602565b60405180910390fd5b6002805480602002602001604051908101604052809291908181526020016000905b828210156116e5578382906000526020600020906002020160405180604001604052908160008201805461164a906128d9565b80601f0160208091040260200160405190810160405280929190818152602001828054611676906128d9565b80156116c35780601f10611698576101008083540402835291602001916116c3565b820191906000526020600020905b8154815290600101906020018083116116a657829003601f168201915b5050505050815260200160018201548152505081526020019060010190611617565b50505050905090565b6116f6611c1a565b73ffffffffffffffffffffffffffffffffffffffff16611714610de8565b73ffffffffffffffffffffffffffffffffffffffff161461176a576040517f08c379a000000000000000000000000000000000000000000000000000000000815260040161176190612582565b60405180910390fd5b6002600581111561177e5761177d6129b4565b5b600460009054906101000a900460ff1660058111156117a05761179f6129b4565b5b146117e0576040517f08c379a00000000000000000000000000000000000000000000000000000000081526004016117d7906125e2565b60405180910390fd5b6003600460006101000a81548160ff02191690836005811115611806576118056129b4565b5b02179055507f0a97a4ee45751e2abf3e4fc8946939630b11b371ea8ae39ccdc3056e98f5cc3f6002600360405161183e929190612467565b60405180910390a1565b611850611c1a565b73ffffffffffffffffffffffffffffffffffffffff1661186e610de8565b73ffffffffffffffffffffffffffffffffffffffff16146118c4576040517f08c379a00000000000000000000000000000000000000000000000000000000081526004016118bb90612582565b60405180910390fd5b600073ffffffffffffffffffffffffffffffffffffffff168173ffffffffffffffffffffffffffffffffffffffff161415611934576040517f08c379a000000000000000000000000000000000000000000000000000000000815260040161192b906124e2565b60405180910390fd5b61193d81611c22565b50565b611948611c1a565b73ffffffffffffffffffffffffffffffffffffffff16611966610de8565b73ffffffffffffffffffffffffffffffffffffffff16146119bc576040517f08c379a00000000000000000000000000000000000000000000000000000000081526004016119b390612582565b60405180910390fd5b600060058111156119d0576119cf6129b4565b5b600460009054906101000a900460ff1660058111156119f2576119f16129b4565b5b14611a32576040517f08c379a0000000000000000000000000000000000000000000000000000000008152600401611a29906126a2565b60405180910390fd5b60011515600660008373ffffffffffffffffffffffffffffffffffffffff1673ffffffffffffffffffffffffffffffffffffffff16815260200190815260200160002060000160009054906101000a900460ff1615151415611ac9576040517f08c379a0000000000000000000000000000000000000000000000000000000008152600401611ac090612502565b60405180910390fd5b6001600660008373ffffffffffffffffffffffffffffffffffffffff1673ffffffffffffffffffffffffffffffffffffffff16815260200190815260200160002060000160006101000a81548160ff0219169083151502179055507fb6be2187d059cc2a55fe29e0e503b566e1e0f8c8780096e185429350acffd3dd81604051611b5391906123e6565b60405180910390a150565b60058181548110611b6e57600080fd5b9060005260206000209060020201600091509050806000018054611b91906128d9565b80601f0160208091040260200160405190810160405280929190818152602001828054611bbd906128d9565b8015611c0a5780601f10611bdf57610100808354040283529160200191611c0a565b820191906000526020600020905b815481529060010190602001808311611bed57829003601f168201915b5050505050908060010154905082565b600033905090565b60008060009054906101000a900473ffffffffffffffffffffffffffffffffffffffff169050816000806101000a81548173ffffffffffffffffffffffffffffffffffffffff021916908373ffffffffffffffffffffffffffffffffffffffff1602179055508173ffffffffffffffffffffffffffffffffffffffff168173ffffffffffffffffffffffffffffffffffffffff167f8be0079c531659141344cd1fd0a4f28419497f9722a3daafe3b4186f6b6457e060405160405180910390a35050565b604051806040016040528060608152602001600081525090565b828054611d0c906128d9565b90600052602060002090601f016020900481019282611d2e5760008555611d75565b82601f10611d4757805160ff1916838001178555611d75565b82800160010185558215611d75579182015b82811115611d74578251825591602001919060010190611d59565b5b509050611d829190611e5a565b5090565b6040518060a00160405280600590602082028036833780820191505090505090565b828054611db4906128d9565b90600052602060002090601f016020900481019282611dd65760008555611e24565b82601f10611de75780548555611e24565b82800160010185558215611e2457600052602060002091601f016020900482015b82811115611e23578254825591600101919060010190611e08565b5b509050611e319190611e5a565b5090565b6040518060600160405280600015158152602001600015158152602001600081525090565b5b80821115611e73576000816000905550600101611e5b565b5090565b6000611e8a611e858461275f565b61273a565b905082815260208101848484011115611ea657611ea5612a75565b5b611eb1848285612897565b509392505050565b600081359050611ec881612e43565b92915050565b600082601f830112611ee357611ee2612a70565b5b8135611ef3848260208601611e77565b91505092915050565b600081359050611f0b81612e5a565b92915050565b600060208284031215611f2757611f26612a7f565b5b6000611f3584828501611eb9565b91505092915050565b600060208284031215611f5457611f53612a7f565b5b600082013567ffffffffffffffff811115611f7257611f71612a7a565b5b611f7e84828501611ece565b91505092915050565b600060208284031215611f9d57611f9c612a7f565b5b6000611fab84828501611efc565b91505092915050565b6000611fc0838361230c565b905092915050565b611fd18161282a565b82525050565b6000611fe2826127a0565b611fec81856127c3565b935083602082028501611ffe85612790565b8060005b8581101561203a578484038952815161201b8582611fb4565b9450612026836127b6565b925060208a01995050600181019050612002565b50829750879550505050505092915050565b6120558161283c565b82525050565b61206481612885565b82525050565b6000612075826127ab565b61207f81856127d4565b935061208f8185602086016128a6565b61209881612a84565b840191505092915050565b60006120ae826127ab565b6120b881856127e5565b93506120c88185602086016128a6565b6120d181612a84565b840191505092915050565b60006120e96026836127e5565b91506120f482612a95565b604082019050919050565b600061210c6012836127e5565b915061211782612ae4565b602082019050919050565b600061212f6012836127e5565b915061213a82612b0d565b602082019050919050565b60006121526021836127e5565b915061215d82612b36565b604082019050919050565b6000612175601d836127e5565b915061218082612b85565b602082019050919050565b60006121986020836127e5565b91506121a382612bae565b602082019050919050565b60006121bb6023836127e5565b91506121c682612bd7565b604082019050919050565b60006121de6012836127e5565b91506121e982612c26565b602082019050919050565b6000612201602b836127e5565b915061220c82612c4f565b604082019050919050565b60006122246019836127e5565b915061222f82612c9e565b602082019050919050565b60006122476000836127e5565b915061225282612cc7565b600082019050919050565b600061226a6029836127e5565b915061227582612cca565b604082019050919050565b600061228d6028836127e5565b915061229882612d19565b604082019050919050565b60006122b0602a836127e5565b91506122bb82612d68565b604082019050919050565b60006122d36023836127e5565b91506122de82612db7565b604082019050919050565b60006122f66016836127e5565b915061230182612e06565b602082019050919050565b60006040830160008301518482036000860152612329828261206a565b915050602083015161233e60208601826123c8565b508091505092915050565b60006040830160008301518482036000860152612366828261206a565b915050602083015161237b60208601826123c8565b508091505092915050565b60608201600082015161239c600085018261204c565b5060208201516123af602085018261204c565b5060408201516123c260408501826123c8565b50505050565b6123d18161287b565b82525050565b6123e08161287b565b82525050565b60006020820190506123fb6000830184611fc8565b92915050565b60006040820190506124166000830185611fc8565b61242360208301846123d7565b9392505050565b600060208201905081810360008301526124448184611fd7565b905092915050565b6000602082019050612461600083018461205b565b92915050565b600060408201905061247c600083018561205b565b612489602083018461205b565b9392505050565b600060208201905081810360008301526124aa81846120a3565b905092915050565b600060408201905081810360008301526124cc81856120a3565b90506124db60208301846123d7565b9392505050565b600060208201905081810360008301526124fb816120dc565b9050919050565b6000602082019050818103600083015261251b816120ff565b9050919050565b6000602082019050818103600083015261253b81612122565b9050919050565b6000602082019050818103600083015261255b81612145565b9050919050565b6000602082019050818103600083015261257b81612168565b9050919050565b6000602082019050818103600083015261259b8161218b565b9050919050565b600060208201905081810360008301526125bb816121ae565b9050919050565b600060208201905081810360008301526125db816121d1565b9050919050565b600060208201905081810360008301526125fb816121f4565b9050919050565b6000602082019050818103600083015261261b81612217565b9050919050565b6000602082019050818103600083015261263b8161223a565b9050919050565b6000602082019050818103600083015261265b8161225d565b9050919050565b6000602082019050818103600083015261267b81612280565b9050919050565b6000602082019050818103600083015261269b816122a3565b9050919050565b600060208201905081810360008301526126bb816122c6565b9050919050565b600060208201905081810360008301526126db816122e9565b9050919050565b600060208201905081810360008301526126fc8184612349565b905092915050565b60006060820190506127196000830184612386565b92915050565b600060208201905061273460008301846123d7565b92915050565b6000612744612755565b9050612750828261290b565b919050565b6000604051905090565b600067ffffffffffffffff82111561277a57612779612a41565b5b61278382612a84565b9050602081019050919050565b6000819050602082019050919050565b600081519050919050565b600081519050919050565b6000602082019050919050565b600082825260208201905092915050565b600082825260208201905092915050565b600082825260208201905092915050565b60006128018261287b565b915061280c8361287b565b92508282101561281f5761281e612985565b5b828203905092915050565b60006128358261285b565b9050919050565b60008115159050919050565b600081905061285682612e2f565b919050565b600073ffffffffffffffffffffffffffffffffffffffff82169050919050565b6000819050919050565b600061289082612848565b9050919050565b82818337600083830152505050565b60005b838110156128c45780820151818401526020810190506128a9565b838111156128d3576000848401525b50505050565b600060028204905060018216806128f157607f821691505b60208210811415612905576129046129e3565b5b50919050565b61291482612a84565b810181811067ffffffffffffffff8211171561293357612932612a41565b5b80604052505050565b60006129478261287b565b91507fffffffffffffffffffffffffffffffffffffffffffffffffffffffffffffffff82141561297a57612979612985565b5b600182019050919050565b7f4e487b7100000000000000000000000000000000000000000000000000000000600052601160045260246000fd5b7f4e487b7100000000000000000000000000000000000000000000000000000000600052602160045260246000fd5b7f4e487b7100000000000000000000000000000000000000000000000000000000600052602260045260246000fd5b7f4e487b7100000000000000000000000000000000000000000000000000000000600052603260045260246000fd5b7f4e487b7100000000000000000000000000000000000000000000000000000000600052604160045260246000fd5b600080fd5b600080fd5b600080fd5b600080fd5b6000601f19601f8301169050919050565b7f4f776e61626c653a206e6577206f776e657220697320746865207a65726f206160008201527f6464726573730000000000000000000000000000000000000000000000000000602082015250565b7f416c726561647920726567697374657265640000000000000000000000000000600082015250565b7f596f75277265206e6f74206120766f7465720000000000000000000000000000600082015250565b7f566f74696e672073657373696f6e20686176656e74207374617274656420796560008201527f7400000000000000000000000000000000000000000000000000000000000000602082015250565b7f50726f706f73616c7320617265206e6f7420616c6c6f77656420796574000000600082015250565b7f4f776e61626c653a2063616c6c6572206973206e6f7420746865206f776e6572600082015250565b7f566f7573206e6520706f7576657a20706173206e65207269656e2070726f706f60008201527f7365720000000000000000000000000000000000000000000000000000000000602082015250565b7f50726f706f73616c206e6f7420666f756e640000000000000000000000000000600082015250565b7f5265676973746572696e672070726f706f73616c73207068617365206973206e60008201527f6f742066696e6973686564000000000000000000000000000000000000000000602082015250565b7f566f74657320617265206e6f742074616c6c6965642079657400000000000000600082015250565b50565b7f5265676973746572696e672070726f706f73616c732063616e7420626520737460008201527f6172746564206e6f770000000000000000000000000000000000000000000000602082015250565b7f5265676973746572696e672070726f706f73616c7320686176656e742073746160008201527f7274656420796574000000000000000000000000000000000000000000000000602082015250565b7f43757272656e7420737461747573206973206e6f7420766f74696e672073657360008201527f73696f6e20656e64656400000000000000000000000000000000000000000000602082015250565b7f566f7465727320726567697374726174696f6e206973206e6f74206f70656e2060008201527f7965740000000000000000000000000000000000000000000000000000000000602082015250565b7f596f75206861766520616c726561647920766f74656400000000000000000000600082015250565b60068110612e4057612e3f6129b4565b5b50565b612e4c8161282a565b8114612e5757600080fd5b50565b612e638161287b565b8114612e6e57600080fd5b5056fea2646970667358221220df0b61e94086217cfccba2e9b959f5d45b4e113fa76b165bd49f9e277b86b60a64736f6c63430008070033",
  "immutableReferences": {},
  "source": "// SPDX-License-Identifier: MIT\n\npragma solidity ^0.8.7;\nimport \"@openzeppelin/contracts/access/Ownable.sol\";\n\n/**\n * @title Voting Contract\n * @author Alyra\n */\ncontract Voting is Ownable {\n    uint[] winningProposalsID;\n    Proposal[] winningProposals;\n    \n    uint winningProposalID;\n    \n    struct Voter {\n        bool isRegistered;\n        bool hasVoted;\n        uint votedProposalId;\n    }\n\n    struct Proposal {\n        string description;\n        uint voteCount;\n    }\n\n    enum  WorkflowStatus {\n        RegisteringVoters,\n        ProposalsRegistrationStarted,\n        ProposalsRegistrationEnded,\n        VotingSessionStarted,\n        VotingSessionEnded,\n        VotesTallied\n    }\n\n    WorkflowStatus public workflowStatus;\n    Proposal[] public proposalsArray;\n    mapping (address => Voter) private voters;\n\n    event VoterRegistered(address voterAddress); \n    event WorkflowStatusChange(WorkflowStatus previousStatus, WorkflowStatus newStatus);\n    event ProposalRegistered(uint proposalId);\n    event Voted (address voter, uint proposalId);\n\n    modifier onlyVoters() {\n        require(voters[msg.sender].isRegistered, \"You're not a voter\");\n        _;\n    }\n    \n    // on peut faire un modifier pour les tats\n\n    // ::::::::::::: GETTERS ::::::::::::: //\n\n    function getVoter(address _addr) external onlyVoters view returns (Voter memory) {\n        return voters[_addr];\n    }\n    \n    function getOneProposal(uint _id) external view returns (Proposal memory) {\n        return proposalsArray[_id];\n    }\n\n    // ne pas tester\n    function getWinners() external view returns (Proposal[] memory) {\n        require(workflowStatus == WorkflowStatus.VotesTallied, 'Votes are not tallied yet');\n        return winningProposals; // return proposalsArray[winningProposalID];\n    }\n\n    function getWinner() external view returns (Proposal memory) {\n        require(workflowStatus == WorkflowStatus.VotesTallied, 'Votes are not tallied yet');\n        return proposalsArray[winningProposalID];\n    }\n \n    // ::::::::::::: REGISTRATION ::::::::::::: // \n\n    function addVoter(address _addr) external onlyOwner {\n        require(workflowStatus == WorkflowStatus.RegisteringVoters, 'Voters registration is not open yet');\n        require(voters[_addr].isRegistered != true, 'Already registered');\n    \n        voters[_addr].isRegistered = true;\n        emit VoterRegistered(_addr);\n    }\n \n    /* facultatif\n     * function deleteVoter(address _addr) external onlyOwner {\n     *   require(workflowStatus == WorkflowStatus.RegisteringVoters, 'Voters registration is not open yet');\n     *   require(voters[_addr].isRegistered == true, 'Not registered.');\n     *   voters[_addr].isRegistered = false;\n     *  emit VoterRegistered(_addr);\n    }*/\n\n    // ::::::::::::: PROPOSAL ::::::::::::: // \n\n    function addProposal(string memory _desc) external onlyVoters {\n        require(workflowStatus == WorkflowStatus.ProposalsRegistrationStarted, 'Proposals are not allowed yet');\n        require(keccak256(abi.encode(_desc)) != keccak256(abi.encode(\"\")), 'Vous ne pouvez pas ne rien proposer'); // facultatif\n        // voir que desc est different des autres\n\n        Proposal memory proposal;\n        proposal.description = _desc;\n        proposalsArray.push(proposal);\n        emit ProposalRegistered(proposalsArray.length-1);\n    }\n\n    // ::::::::::::: VOTE ::::::::::::: //\n\n    function setVote( uint _id) external onlyVoters {\n        require(workflowStatus == WorkflowStatus.VotingSessionStarted, 'Voting session havent started yet');\n        require(voters[msg.sender].hasVoted != true, 'You have already voted');\n        require(_id <= proposalsArray.length, 'Proposal not found'); // pas oblig, et pas besoin du >0 car uint\n\n        voters[msg.sender].votedProposalId = _id;\n        voters[msg.sender].hasVoted = true;\n        proposalsArray[_id].voteCount++;\n\n        emit Voted(msg.sender, _id);\n    }\n\n    // ::::::::::::: STATE ::::::::::::: //\n\n    /* on pourrait factoriser tout a: par exemple:\n    *  function setWorkflowStatus(WorkflowStatus _num) public onlyOwner {\n    *    WorkflowStatus pnum = workflowStatus;\n    *    workflowStatus = _num;\n    *    emit WorkflowStatusChange(pnum, workflowStatus);\n        } */ \n\n\n    function startProposalsRegistering() external onlyOwner {\n        require(workflowStatus == WorkflowStatus.RegisteringVoters, 'Registering proposals cant be started now');\n        workflowStatus = WorkflowStatus.ProposalsRegistrationStarted;\n        emit WorkflowStatusChange(WorkflowStatus.RegisteringVoters, WorkflowStatus.ProposalsRegistrationStarted);\n    }\n\n    function endProposalsRegistering() external onlyOwner {\n        require(workflowStatus == WorkflowStatus.ProposalsRegistrationStarted, 'Registering proposals havent started yet');\n        workflowStatus = WorkflowStatus.ProposalsRegistrationEnded;\n        emit WorkflowStatusChange(WorkflowStatus.ProposalsRegistrationStarted, WorkflowStatus.ProposalsRegistrationEnded);\n    }\n\n    function startVotingSession() external onlyOwner {\n        require(workflowStatus == WorkflowStatus.ProposalsRegistrationEnded, 'Registering proposals phase is not finished');\n        workflowStatus = WorkflowStatus.VotingSessionStarted;\n        emit WorkflowStatusChange(WorkflowStatus.ProposalsRegistrationEnded, WorkflowStatus.VotingSessionStarted);\n    }\n\n    function endVotingSession() external onlyOwner {\n        require(workflowStatus == WorkflowStatus.VotingSessionStarted, 'Voting session havent started yet');\n        workflowStatus = WorkflowStatus.VotingSessionEnded;\n        emit WorkflowStatusChange(WorkflowStatus.VotingSessionStarted, WorkflowStatus.VotingSessionEnded);\n    }\n\n    // ne pas tester\n    function tallyVotesDraw() external onlyOwner {\n       require(workflowStatus == WorkflowStatus.VotingSessionEnded, \"Current status is not voting session ended\");\n        uint highestCount;\n        uint[5] memory winners; // egalite entre 5 proposals max\n        uint nbWinners;\n        for (uint i = 0; i < proposalsArray.length; i++) {\n            if (nbWinners<5){\n                if (proposalsArray[i].voteCount == highestCount) {\n                    winners[nbWinners]=i;\n                    nbWinners++;\n                }\n                if (proposalsArray[i].voteCount > highestCount) {\n                    delete winners;\n                    winners[0]= i;\n                    highestCount = proposalsArray[i].voteCount;\n                    nbWinners=1;\n                }\n            }\n        }\n        for(uint j=0;j<nbWinners;j++){\n            winningProposalsID.push(winners[j]);\n            winningProposals.push(proposalsArray[winners[j]]);\n        }\n        workflowStatus = WorkflowStatus.VotesTallied;\n        emit WorkflowStatusChange(WorkflowStatus.VotingSessionEnded, WorkflowStatus.VotesTallied);\n    }\n\n    function tallyVotes() external onlyOwner {\n        require(workflowStatus == WorkflowStatus.VotingSessionEnded, \"Current status is not voting session ended\");\n        uint _winningProposalId;\n        for (uint256 p = 0; p < proposalsArray.length; p++) {\n            if (proposalsArray[p].voteCount > proposalsArray[_winningProposalId].voteCount) {\n                _winningProposalId = p;\n            }\n        }\n        winningProposalID = _winningProposalId;\n        workflowStatus = WorkflowStatus.VotesTallied;\n        emit WorkflowStatusChange(WorkflowStatus.VotingSessionEnded, WorkflowStatus.VotesTallied);\n    }\n}\n",
  "sourcePath": "/home/binderl/Documents/GITHUB/BINDERL/DEFI/contracts/voting.sol",
  "compiler": {
    "name": "solc",
    "version": "0.8.7+commit.e28d00a7.Emscripten.clang"
  },
  "schemaVersion": "3.4.3",
  "updatedAt": "2021-11-28T12:33:55.687Z",
  "devdoc": {
    "author": "Alyra",
    "kind": "dev",
    "methods": {
      "owner()": {
        "details": "Returns the address of the current owner."
      },
      "renounceOwnership()": {
        "details": "Leaves the contract without owner. It will not be possible to call `onlyOwner` functions anymore. Can only be called by the current owner. NOTE: Renouncing ownership will leave the contract without an owner, thereby removing any functionality that is only available to the owner."
      },
      "transferOwnership(address)": {
        "details": "Transfers ownership of the contract to a new account (`newOwner`). Can only be called by the current owner."
      }
    },
    "title": "Voting Contract",
    "version": 1
  },
  "userdoc": {
    "kind": "user",
    "methods": {},
    "version": 1
  }
}